{
    "contractName": "MyContract",
    "abi": [
        {
            "inputs": [
                {
                    "internalType": "string",
                    "name": "_name",
                    "type": "string"
                },
                {
                    "internalType": "address[]",
                    "name": "trustedValidatorsArr",
                    "type": "address[]"
                }
            ],
            "stateMutability": "nonpayable",
            "type": "constructor"
        },
        {
            "inputs": [
                {
                    "internalType": "uint256",
                    "name": "_blockchainid",
                    "type": "uint256"
                },
                {
                    "components": [
                        {
                            "internalType": "bytes32",
                            "name": "parent_hash",
                            "type": "bytes32"
                        },
                        {
                            "internalType": "uint256",
                            "name": "timestamp",
                            "type": "uint256"
                        },
                        {
                            "internalType": "uint256",
                            "name": "number",
                            "type": "uint256"
                        },
                        {
                            "internalType": "address",
                            "name": "author",
                            "type": "address"
                        },
                        {
                            "internalType": "bytes32",
                            "name": "transactions_root",
                            "type": "bytes32"
                        },
                        {
                            "internalType": "bytes32",
                            "name": "uncles_hash",
                            "type": "bytes32"
                        },
                        {
                            "internalType": "bytes",
                            "name": "extra_data",
                            "type": "bytes"
                        },
                        {
                            "internalType": "bytes32",
                            "name": "state_root",
                            "type": "bytes32"
                        },
                        {
                            "internalType": "bytes32",
                            "name": "receipts_root",
                            "type": "bytes32"
                        },
                        {
                            "internalType": "bytes",
                            "name": "log_bloom",
                            "type": "bytes"
                        },
                        {
                            "internalType": "uint256",
                            "name": "gas_used",
                            "type": "uint256"
                        },
                        {
                            "internalType": "uint256",
                            "name": "gas_limit",
                            "type": "uint256"
                        },
                        {
                            "internalType": "uint256",
                            "name": "difficulty",
                            "type": "uint256"
                        },
                        {
                            "internalType": "bytes32",
                            "name": "mixHash",
                            "type": "bytes32"
                        },
                        {
                            "internalType": "uint256",
                            "name": "nonce",
                            "type": "uint256"
                        }
                    ],
                    "internalType": "struct MyContract.BlockHeader",
                    "name": "blockheader",
                    "type": "tuple"
                },
                {
                    "internalType": "bytes32",
                    "name": "_blockhash",
                    "type": "bytes32"
                },
                {
                    "internalType": "bytes",
                    "name": "signature",
                    "type": "bytes"
                }
            ],
            "name": "addSignedBlock",
            "outputs": [],
            "stateMutability": "nonpayable",
            "type": "function"
        },
        {
            "inputs": [
                {
                    "internalType": "string",
                    "name": "_name",
                    "type": "string"
                }
            ],
            "name": "changeName",
            "outputs": [],
            "stateMutability": "nonpayable",
            "type": "function"
        },
        {
            "inputs": [],
            "name": "getName",
            "outputs": [
                {
                    "internalType": "string",
                    "name": "",
                    "type": "string"
                }
            ],
            "stateMutability": "view",
            "type": "function"
        },
        {
            "inputs": [
                {
                    "internalType": "bytes32",
                    "name": "_ethSignedblockHeaterHash",
                    "type": "bytes32"
                },
                {
                    "internalType": "bytes",
                    "name": "_signature",
                    "type": "bytes"
                }
            ],
            "name": "recoverSigner",
            "outputs": [
                {
                    "internalType": "address",
                    "name": "",
                    "type": "address"
                }
            ],
            "stateMutability": "pure",
            "type": "function"
        },
        {
            "inputs": [],
            "name": "setTrustedValidator",
            "outputs": [],
            "stateMutability": "nonpayable",
            "type": "function"
        },
        {
            "inputs": [
                {
                    "internalType": "bytes",
                    "name": "sig",
                    "type": "bytes"
                }
            ],
            "name": "splitSignature",
            "outputs": [
                {
                    "internalType": "bytes32",
                    "name": "r",
                    "type": "bytes32"
                },
                {
                    "internalType": "bytes32",
                    "name": "s",
                    "type": "bytes32"
                },
                {
                    "internalType": "uint8",
                    "name": "v",
                    "type": "uint8"
                }
            ],
            "stateMutability": "pure",
            "type": "function"
        }
    ],
    "bytecode": "60806040523480156200001157600080fd5b50604051620010c6380380620010c6833981016040819052620000349162000250565b815162000049906000906020850190620000c2565b5060005b8151811015620000b95760016003600084848151811062000072576200007262000335565b6020908102919091018101516001600160a01b03168252810191909152604001600020805460ff191691151591909117905580620000b0816200034b565b9150506200004d565b505050620003b2565b828054620000d09062000375565b90600052602060002090601f016020900481019282620000f457600085556200013f565b82601f106200010f57805160ff19168380011785556200013f565b828001600101855582156200013f579182015b828111156200013f57825182559160200191906001019062000122565b506200014d92915062000151565b5090565b5b808211156200014d576000815560010162000152565b634e487b7160e01b600052604160045260246000fd5b604051601f8201601f191681016001600160401b0381118282101715620001a957620001a962000168565b604052919050565b600082601f830112620001c357600080fd5b815160206001600160401b03821115620001e157620001e162000168565b8160051b620001f28282016200017e565b92835284810182019282810190878511156200020d57600080fd5b83870192505b84831015620002455782516001600160a01b0381168114620002355760008081fd5b8252918301919083019062000213565b979650505050505050565b600080604083850312156200026457600080fd5b82516001600160401b03808211156200027c57600080fd5b818501915085601f8301126200029157600080fd5b815181811115620002a657620002a662000168565b6020620002bc601f8301601f191682016200017e565b8281528882848701011115620002d157600080fd5b60005b83811015620002f1578581018301518282018401528201620002d4565b83811115620003035760008385840101525b5090870151909550925050808211156200031c57600080fd5b506200032b85828601620001b1565b9150509250929050565b634e487b7160e01b600052603260045260246000fd5b60006000198214156200036e57634e487b7160e01b600052601160045260246000fd5b5060010190565b600181811c908216806200038a57607f821691505b60208210811415620003ac57634e487b7160e01b600052602260045260246000fd5b50919050565b610d0480620003c26000396000f3fe608060405234801561001057600080fd5b50600436106100625760003560e01c806317d7de7c146100675780633250155e146100855780635353a2d8146100a657806397aba7f9146100b9578063a7bb5803146100e4578063f0adc50b14610115575b600080fd5b61006f610128565b60405161007c9190610881565b60405180910390f35b6100a4336000908152600360205260409020805460ff19166001179055565b005b6100a46100b436600461096a565b6101ba565b6100cc6100c73660046109e2565b6101d1565b6040516001600160a01b03909116815260200161007c565b6100f76100f2366004610a29565b610250565b60408051938452602084019290925260ff169082015260600161007c565b6100a4610123366004610a7a565b6102c7565b60606000805461013790610bdb565b80601f016020809104026020016040519081016040528092919081815260200182805461016390610bdb565b80156101b05780601f10610185576101008083540402835291602001916101b0565b820191906000526020600020905b81548152906001019060200180831161019357829003601f168201915b5050505050905090565b80516101cd9060009060208401906107b8565b5050565b6000806000806101e085610250565b6040805160008152602081018083528b905260ff8316918101919091526060810184905260808101839052929550909350915060019060a0016020604051602081039080840390855afa15801561023b573d6000803e3d6000fd5b5050604051601f190151979650505050505050565b600080600083516041146102ab5760405162461bcd60e51b815260206004820152601860248201527f696e76616c6964207369676e6174757265206c656e677468000000000000000060448201526064015b60405180910390fd5b50505060208101516040820151606083015160001a9193909250565b3360009081526003602052604090205460ff1661033e5760405162461bcd60e51b815260206004820152602f60248201527f4f6e6c7920747275737465642056616c696461746f72732063616e2063616c6c60448201526e103a3434b990333ab731ba34b7b71760891b60648201526084016102a2565b60008281526004602052604090205460ff161561039d5760405162461bcd60e51b815260206004820152601c60248201527f626c6f636b20686173206265656e20616464656420616c72656164790000000060448201526064016102a2565b3360009081526005602052604090205460ff16156104095760405162461bcd60e51b815260206004820152602360248201527f56616c696461746f7220616c7265616479206164646564207468697320626c6f60448201526231b59760e91b60648201526084016102a2565b61041584848385610671565b6104875760405162461bcd60e51b815260206004820152603860248201527f626c6f636b6861736820616e6420626c6f636b6865616465722077697468207360448201527f69676e697475726520646f7365206e6f74206d617463682e000000000000000060648201526084016102a2565b600082815260026020908152604080832033845260010190915290205460ff166104ff5760405162461bcd60e51b8152602060048201526024808201527f56616c696461746f7220616c7265616479207369676e6564207468697320626c60448201526337b1b59760e11b60648201526084016102a2565b6040805160608082018352858252602080830185905282840186905260008681526001808352908590208451805182558084015192820192909255948101516002860155918201516003850180546001600160a01b0319166001600160a01b039092169190911790556080820151600485015560a0820151600585015560c0820151805193948594909392849261059f92600685019291909101906107b8565b5060e08201516007820155610100820151600882015561012082015180516105d19160098401916020909101906107b8565b50610140820151600a820155610160820151600b820155610180820151600c8201556101a0820151600d8201556101c090910151600e90910155602082810151805161062392600f85019201906107b8565b5060409182015160109091015560009384526002602090815281852033865260019081018252828620805460ff19908116831790915560059092529190942080549094161790925550505050565b60008061067e86866106fb565b905060006106d9826040517f19457468657265756d205369676e6564204d6573736167653a0a3332000000006020820152603c8101829052600090605c01604051602081830303815290604052805190602001209050919050565b9050336106e682876101d1565b6001600160a01b031614979650505050505050565b60008083836000015184602001518560400151866060015187608001518860a001518960c00151604051602001610739989796959493929190610c16565b604051602081830303815290604052805190602001209050808360e00151846101000151856101200151866101400151876101600151886101800151896101a001518a6101c0015160405160200161079999989796959493929190610c78565b6040516020818303038152906040528051906020012091505092915050565b8280546107c490610bdb565b90600052602060002090601f0160209004810192826107e6576000855561082c565b82601f106107ff57805160ff191683800117855561082c565b8280016001018555821561082c579182015b8281111561082c578251825591602001919060010190610811565b5061083892915061083c565b5090565b5b80821115610838576000815560010161083d565b60005b8381101561086c578181015183820152602001610854565b8381111561087b576000848401525b50505050565b60208152600082518060208401526108a0816040850160208701610851565b601f01601f19169190910160400192915050565b634e487b7160e01b600052604160045260246000fd5b6040516101e0810167ffffffffffffffff811182821017156108ee576108ee6108b4565b60405290565b600067ffffffffffffffff8084111561090f5761090f6108b4565b604051601f8501601f19908116603f01168101908282118183101715610937576109376108b4565b8160405280935085815286868601111561095057600080fd5b858560208301376000602087830101525050509392505050565b60006020828403121561097c57600080fd5b813567ffffffffffffffff81111561099357600080fd5b8201601f810184136109a457600080fd5b6109b3848235602084016108f4565b949350505050565b600082601f8301126109cc57600080fd5b6109db838335602085016108f4565b9392505050565b600080604083850312156109f557600080fd5b82359150602083013567ffffffffffffffff811115610a1357600080fd5b610a1f858286016109bb565b9150509250929050565b600060208284031215610a3b57600080fd5b813567ffffffffffffffff811115610a5257600080fd5b6109b3848285016109bb565b80356001600160a01b0381168114610a7557600080fd5b919050565b60008060008060808587031215610a9057600080fd5b84359350602085013567ffffffffffffffff80821115610aaf57600080fd5b908601906101e08289031215610ac457600080fd5b610acc6108ca565b823581526020830135602082015260408301356040820152610af060608401610a5e565b60608201526080830135608082015260a083013560a082015260c083013582811115610b1b57600080fd5b610b278a8286016109bb565b60c08301525060e083013560e08201526101008084013581830152506101208084013583811115610b5757600080fd5b610b638b8287016109bb565b91830191909152506101408381013590820152610160808401359082015261018080840135908201526101a080840135908201526101c092830135928101929092529093506040860135925060608601359080821115610bc257600080fd5b50610bcf878288016109bb565b91505092959194509250565b600181811c90821680610bef57607f821691505b60208210811415610c1057634e487b7160e01b600052602260045260246000fd5b50919050565b8881528760208201528660408201528560608201526bffffffffffffffffffffffff198560601b1660808201528360948201528260b482015260008251610c648160d4850160208701610851565b9190910160d4019998505050505050505050565b89815288602082015287604082015260008751610c9c816060850160208c01610851565b6060920191820196909652608081019490945260a084019290925260c083015260e0820152610100019594505050505056fea2646970667358221220373f14ecd6aa16a68ed46c84aa31dff70474644177b309cf4cf369f5c89e437c64736f6c634300080a0033",
    "sourcePath": "/Users/matanyi/Documents/solidity-project/contracts/MyContract.sol",
    "compiler": {
        "name": "solc",
        "version": "0.8.10+commit.fc410830"
    },
    "functionHashes": {
        "addSignedBlock(uint256,(bytes32,uint256,uint256,address,bytes32,bytes32,bytes,bytes32,bytes32,bytes,uint256,uint256,uint256,bytes32,uint256),bytes32,bytes)": "f0adc50b",
        "changeName(string)": "5353a2d8",
        "getName()": "17d7de7c",
        "recoverSigner(bytes32,bytes)": "97aba7f9",
        "setTrustedValidator()": "3250155e",
        "splitSignature(bytes)": "a7bb5803"
    },
    "gasEstimates": {
        "creation": {
            "codeDepositCost": "666400",
            "executionCost": "infinite",
            "totalCost": "infinite"
        },
        "external": {
            "addSignedBlock(uint256,(bytes32,uint256,uint256,address,bytes32,bytes32,bytes,bytes32,bytes32,bytes,uint256,uint256,uint256,bytes32,uint256),bytes32,bytes)": "infinite",
            "changeName(string)": "infinite",
            "getName()": "infinite",
            "recoverSigner(bytes32,bytes)": "infinite",
            "setTrustedValidator()": "24424",
            "splitSignature(bytes)": "infinite"
        },
        "internal": {
            "getBlockHeaderHash(uint256,struct MyContract.BlockHeader memory)": "infinite",
            "getEthSignedBlockHeaderHash(bytes32)": "infinite",
            "verifySignature(uint256,struct MyContract.BlockHeader memory,bytes memory,bytes32)": "infinite"
        }
    }
}