{
  "_format": "hh-sol-artifact-1",
  "contractName": "MyContract",
  "sourceName": "contracts/MyContract.sol",
  "abi": [
    {
      "inputs": [
        {
          "internalType": "address[]",
          "name": "trustedValidatorsArr",
          "type": "address[]"
        }
      ],
      "stateMutability": "nonpayable",
      "type": "constructor"
    },
    {
      "inputs": [
        {
          "internalType": "uint256",
          "name": "_blockchainid",
          "type": "uint256"
        },
        {
          "components": [
            {
              "internalType": "bytes32",
              "name": "parent_hash",
              "type": "bytes32"
            },
            {
              "internalType": "uint256",
              "name": "timestamp",
              "type": "uint256"
            },
            {
              "internalType": "uint256",
              "name": "number",
              "type": "uint256"
            },
            {
              "internalType": "address",
              "name": "author",
              "type": "address"
            },
            {
              "internalType": "bytes32",
              "name": "transactions_root",
              "type": "bytes32"
            },
            {
              "internalType": "bytes32",
              "name": "uncles_hash",
              "type": "bytes32"
            },
            {
              "internalType": "bytes",
              "name": "extra_data",
              "type": "bytes"
            },
            {
              "internalType": "bytes32",
              "name": "state_root",
              "type": "bytes32"
            },
            {
              "internalType": "bytes32",
              "name": "receipts_root",
              "type": "bytes32"
            },
            {
              "internalType": "bytes",
              "name": "log_bloom",
              "type": "bytes"
            },
            {
              "internalType": "uint256",
              "name": "gas_used",
              "type": "uint256"
            },
            {
              "internalType": "uint256",
              "name": "gas_limit",
              "type": "uint256"
            },
            {
              "internalType": "uint256",
              "name": "difficulty",
              "type": "uint256"
            },
            {
              "internalType": "bytes32",
              "name": "mixHash",
              "type": "bytes32"
            },
            {
              "internalType": "uint256",
              "name": "nonce",
              "type": "uint256"
            }
          ],
          "internalType": "struct MyContract.BlockHeader",
          "name": "blockheader",
          "type": "tuple"
        },
        {
          "internalType": "bytes32",
          "name": "_blockhash",
          "type": "bytes32"
        },
        {
          "internalType": "bytes",
          "name": "signature",
          "type": "bytes"
        }
      ],
      "name": "addSignedBlock",
      "outputs": [],
      "stateMutability": "nonpayable",
      "type": "function"
    },
    {
      "inputs": [
        {
          "internalType": "address",
          "name": "candidateAdress",
          "type": "address"
        }
      ],
      "name": "isValidator",
      "outputs": [
        {
          "internalType": "bool",
          "name": "",
          "type": "bool"
        }
      ],
      "stateMutability": "view",
      "type": "function"
    },
    {
      "inputs": [
        {
          "internalType": "bytes32",
          "name": "_ethSignedblockHeaterHash",
          "type": "bytes32"
        },
        {
          "internalType": "bytes",
          "name": "_signature",
          "type": "bytes"
        }
      ],
      "name": "recoverSigner",
      "outputs": [
        {
          "internalType": "address",
          "name": "",
          "type": "address"
        }
      ],
      "stateMutability": "pure",
      "type": "function"
    },
    {
      "inputs": [
        {
          "internalType": "bytes",
          "name": "sig",
          "type": "bytes"
        }
      ],
      "name": "splitSignature",
      "outputs": [
        {
          "internalType": "bytes32",
          "name": "r",
          "type": "bytes32"
        },
        {
          "internalType": "bytes32",
          "name": "s",
          "type": "bytes32"
        },
        {
          "internalType": "uint8",
          "name": "v",
          "type": "uint8"
        }
      ],
      "stateMutability": "pure",
      "type": "function"
    }
  ],
  "bytecode": "0x60806040523480156200001157600080fd5b50604051620019963803806200199683398181016040528101906200003791906200019c565b60005b8151811015620000cf5760016003600084848151811062000060576200005f62000336565b5b602002602001015173ffffffffffffffffffffffffffffffffffffffff1673ffffffffffffffffffffffffffffffffffffffff16815260200190815260200160002060006101000a81548160ff0219169083151502179055508080620000c690620002b9565b9150506200003a565b5050620003d3565b6000620000ee620000e88462000216565b620001ed565b9050808382526020820190508285602086028201111562000114576200011362000399565b5b60005b858110156200014857816200012d888262000152565b84526020840193506020830192505060018101905062000117565b5050509392505050565b6000815190506200016381620003b9565b92915050565b600082601f83011262000181576200018062000394565b5b815162000193848260208601620000d7565b91505092915050565b600060208284031215620001b557620001b4620003a3565b5b600082015167ffffffffffffffff811115620001d657620001d56200039e565b5b620001e48482850162000169565b91505092915050565b6000620001f96200020c565b905062000207828262000283565b919050565b6000604051905090565b600067ffffffffffffffff82111562000234576200023362000365565b5b602082029050602081019050919050565b6000620002528262000259565b9050919050565b600073ffffffffffffffffffffffffffffffffffffffff82169050919050565b6000819050919050565b6200028e82620003a8565b810181811067ffffffffffffffff82111715620002b057620002af62000365565b5b80604052505050565b6000620002c68262000279565b91507fffffffffffffffffffffffffffffffffffffffffffffffffffffffffffffffff821415620002fc57620002fb62000307565b5b600182019050919050565b7f4e487b7100000000000000000000000000000000000000000000000000000000600052601160045260246000fd5b7f4e487b7100000000000000000000000000000000000000000000000000000000600052603260045260246000fd5b7f4e487b7100000000000000000000000000000000000000000000000000000000600052604160045260246000fd5b600080fd5b600080fd5b600080fd5b600080fd5b6000601f19601f8301169050919050565b620003c48162000245565b8114620003d057600080fd5b50565b6115b380620003e36000396000f3fe608060405234801561001057600080fd5b506004361061004c5760003560e01c806397aba7f914610051578063a7bb580314610081578063f0adc50b146100b3578063facd743b146100cf575b600080fd5b61006b60048036038101906100669190610b58565b6100ff565b6040516100789190610fb1565b60405180910390f35b61009b60048036038101906100969190610bb4565b61016e565b6040516100aa93929190610fe7565b60405180910390f35b6100cd60048036038101906100c89190610bfd565b6101d6565b005b6100e960048036038101906100e49190610b2b565b61066e565b6040516100f69190610fcc565b60405180910390f35b60008060008061010e8561016e565b92509250925060018682858560405160008152602001604052604051610137949392919061101e565b6020604051602081039080840390855afa158015610159573d6000803e3d6000fd5b50505060206040510351935050505092915050565b600080600060418451146101b7576040517f08c379a00000000000000000000000000000000000000000000000000000000081526004016101ae906110e3565b60405180910390fd5b6020840151925060408401519150606084015160001a90509193909250565b600360003373ffffffffffffffffffffffffffffffffffffffff1673ffffffffffffffffffffffffffffffffffffffff16815260200190815260200160002060009054906101000a900460ff16610262576040517f08c379a0000000000000000000000000000000000000000000000000000000008152600401610259906110a3565b60405180910390fd5b6004600083815260200190815260200160002060009054906101000a900460ff16156102c3576040517f08c379a00000000000000000000000000000000000000000000000000000000081526004016102ba90611083565b60405180910390fd5b600560003373ffffffffffffffffffffffffffffffffffffffff1673ffffffffffffffffffffffffffffffffffffffff16815260200190815260200160002060009054906101000a900460ff1615610350576040517f08c379a0000000000000000000000000000000000000000000000000000000008152600401610347906110c3565b60405180910390fd5b61035c848483856106c4565b61039b576040517f08c379a000000000000000000000000000000000000000000000000000000000815260040161039290611103565b60405180910390fd5b6002600083815260200190815260200160002060010160003373ffffffffffffffffffffffffffffffffffffffff1673ffffffffffffffffffffffffffffffffffffffff16815260200190815260200160002060009054906101000a900460ff1661043b576040517f08c379a000000000000000000000000000000000000000000000000000000000815260040161043290611063565b60405180910390fd5b60006040518060600160405280858152602001838152602001848152509050806001600085815260200190815260200160002060008201518160000160008201518160000155602082015181600101556040820151816002015560608201518160030160006101000a81548173ffffffffffffffffffffffffffffffffffffffff021916908373ffffffffffffffffffffffffffffffffffffffff1602179055506080820151816004015560a0820151816005015560c082015181600601908051906020019061050c92919061083d565b5060e08201518160070155610100820151816008015561012082015181600901908051906020019061053f92919061083d565b5061014082015181600a015561016082015181600b015561018082015181600c01556101a082015181600d01556101c082015181600e01555050602082015181600f01908051906020019061059592919061083d565b506040820151816010015590505060016002600085815260200190815260200160002060010160003373ffffffffffffffffffffffffffffffffffffffff1673ffffffffffffffffffffffffffffffffffffffff16815260200190815260200160002060006101000a81548160ff0219169083151502179055506001600560003373ffffffffffffffffffffffffffffffffffffffff1673ffffffffffffffffffffffffffffffffffffffff16815260200190815260200160002060006101000a81548160ff0219169083151502179055505050505050565b6000600360008373ffffffffffffffffffffffffffffffffffffffff1673ffffffffffffffffffffffffffffffffffffffff16815260200190815260200160002060009054906101000a900460ff169050919050565b6000806106d18686610724565b905060006106de8261080d565b90503373ffffffffffffffffffffffffffffffffffffffff1661070182876100ff565b73ffffffffffffffffffffffffffffffffffffffff161492505050949350505050565b60008083836000015184602001518560400151866060015187608001518860a001518960c00151604051602001610762989796959493929190610f23565b60405160208183030381529060405280519060200120905060008360e001518461010001518561012001518661014001518761016001516040516020016107ad959493929190610e43565b6040516020818303038152906040528051906020012090508181856101800151866101a00151876101c001516040516020016107ed959493929190610e9e565b604051602081830303815290604052805190602001209250505092915050565b6000816040516020016108209190610efd565b604051602081830303815290604052805190602001209050919050565b8280546108499061124c565b90600052602060002090601f01602090048101928261086b57600085556108b2565b82601f1061088457805160ff19168380011785556108b2565b828001600101855582156108b2579182015b828111156108b1578251825591602001919060010190610896565b5b5090506108bf91906108c3565b5090565b5b808211156108dc5760008160009055506001016108c4565b5090565b60006108f36108ee84611148565b611123565b90508281526020810184848401111561090f5761090e611354565b5b61091a84828561120a565b509392505050565b60008135905061093181611538565b92915050565b6000813590506109468161154f565b92915050565b600082601f83011261096157610960611345565b5b81356109718482602086016108e0565b91505092915050565b60006101e082840312156109915761099061134a565b5b61099c6101e0611123565b905060006109ac84828501610937565b60008301525060206109c084828501610b16565b60208301525060406109d484828501610b16565b60408301525060606109e884828501610922565b60608301525060806109fc84828501610937565b60808301525060a0610a1084828501610937565b60a08301525060c082013567ffffffffffffffff811115610a3457610a3361134f565b5b610a408482850161094c565b60c08301525060e0610a5484828501610937565b60e083015250610100610a6984828501610937565b6101008301525061012082013567ffffffffffffffff811115610a8f57610a8e61134f565b5b610a9b8482850161094c565b61012083015250610140610ab184828501610b16565b61014083015250610160610ac784828501610b16565b61016083015250610180610add84828501610b16565b610180830152506101a0610af384828501610937565b6101a0830152506101c0610b0984828501610b16565b6101c08301525092915050565b600081359050610b2581611566565b92915050565b600060208284031215610b4157610b4061135e565b5b6000610b4f84828501610922565b91505092915050565b60008060408385031215610b6f57610b6e61135e565b5b6000610b7d85828601610937565b925050602083013567ffffffffffffffff811115610b9e57610b9d611359565b5b610baa8582860161094c565b9150509250929050565b600060208284031215610bca57610bc961135e565b5b600082013567ffffffffffffffff811115610be857610be7611359565b5b610bf48482850161094c565b91505092915050565b60008060008060808587031215610c1757610c1661135e565b5b6000610c2587828801610b16565b945050602085013567ffffffffffffffff811115610c4657610c45611359565b5b610c528782880161097a565b9350506040610c6387828801610937565b925050606085013567ffffffffffffffff811115610c8457610c83611359565b5b610c908782880161094c565b91505092959194509250565b610ca5816111ab565b82525050565b610cbc610cb7826111ab565b6112af565b82525050565b610ccb816111bd565b82525050565b610cda816111c9565b82525050565b610cf1610cec826111c9565b6112c1565b82525050565b6000610d0282611179565b610d0c8185611184565b9350610d1c818560208601611219565b80840191505092915050565b6000610d35601c836111a0565b9150610d4082611381565b601c82019050919050565b6000610d5860248361118f565b9150610d63826113aa565b604082019050919050565b6000610d7b601c8361118f565b9150610d86826113f9565b602082019050919050565b6000610d9e602f8361118f565b9150610da982611422565b604082019050919050565b6000610dc160238361118f565b9150610dcc82611471565b604082019050919050565b6000610de460188361118f565b9150610def826114c0565b602082019050919050565b6000610e0760388361118f565b9150610e12826114e9565b604082019050919050565b610e2e610e29826111f3565b6112dd565b82525050565b610e3d816111fd565b82525050565b6000610e4f8288610ce0565b602082019150610e5f8287610ce0565b602082019150610e6f8286610cf7565b9150610e7b8285610e1d565b602082019150610e8b8284610e1d565b6020820191508190509695505050505050565b6000610eaa8288610ce0565b602082019150610eba8287610ce0565b602082019150610eca8286610e1d565b602082019150610eda8285610ce0565b602082019150610eea8284610e1d565b6020820191508190509695505050505050565b6000610f0882610d28565b9150610f148284610ce0565b60208201915081905092915050565b6000610f2f828b610e1d565b602082019150610f3f828a610ce0565b602082019150610f4f8289610e1d565b602082019150610f5f8288610e1d565b602082019150610f6f8287610cab565b601482019150610f7f8286610ce0565b602082019150610f8f8285610ce0565b602082019150610f9f8284610cf7565b91508190509998505050505050505050565b6000602082019050610fc66000830184610c9c565b92915050565b6000602082019050610fe16000830184610cc2565b92915050565b6000606082019050610ffc6000830186610cd1565b6110096020830185610cd1565b6110166040830184610e34565b949350505050565b60006080820190506110336000830187610cd1565b6110406020830186610e34565b61104d6040830185610cd1565b61105a6060830184610cd1565b95945050505050565b6000602082019050818103600083015261107c81610d4b565b9050919050565b6000602082019050818103600083015261109c81610d6e565b9050919050565b600060208201905081810360008301526110bc81610d91565b9050919050565b600060208201905081810360008301526110dc81610db4565b9050919050565b600060208201905081810360008301526110fc81610dd7565b9050919050565b6000602082019050818103600083015261111c81610dfa565b9050919050565b600061112d61113e565b9050611139828261127e565b919050565b6000604051905090565b600067ffffffffffffffff82111561116357611162611316565b5b61116c82611363565b9050602081019050919050565b600081519050919050565b600081905092915050565b600082825260208201905092915050565b600081905092915050565b60006111b6826111d3565b9050919050565b60008115159050919050565b6000819050919050565b600073ffffffffffffffffffffffffffffffffffffffff82169050919050565b6000819050919050565b600060ff82169050919050565b82818337600083830152505050565b60005b8381101561123757808201518184015260208101905061121c565b83811115611246576000848401525b50505050565b6000600282049050600182168061126457607f821691505b60208210811415611278576112776112e7565b5b50919050565b61128782611363565b810181811067ffffffffffffffff821117156112a6576112a5611316565b5b80604052505050565b60006112ba826112cb565b9050919050565b6000819050919050565b60006112d682611374565b9050919050565b6000819050919050565b7f4e487b7100000000000000000000000000000000000000000000000000000000600052602260045260246000fd5b7f4e487b7100000000000000000000000000000000000000000000000000000000600052604160045260246000fd5b600080fd5b600080fd5b600080fd5b600080fd5b600080fd5b600080fd5b6000601f19601f8301169050919050565b60008160601b9050919050565b7f19457468657265756d205369676e6564204d6573736167653a0a333200000000600082015250565b7f56616c696461746f7220616c7265616479207369676e6564207468697320626c60008201527f6f636b2e00000000000000000000000000000000000000000000000000000000602082015250565b7f626c6f636b20686173206265656e20616464656420616c726561647900000000600082015250565b7f4f6e6c7920747275737465642056616c696461746f72732063616e2063616c6c60008201527f20746869732066756e6374696f6e2e0000000000000000000000000000000000602082015250565b7f56616c696461746f7220616c7265616479206164646564207468697320626c6f60008201527f636b2e0000000000000000000000000000000000000000000000000000000000602082015250565b7f696e76616c6964207369676e6174757265206c656e6774680000000000000000600082015250565b7f626c6f636b6861736820616e6420626c6f636b6865616465722077697468207360008201527f69676e697475726520646f7365206e6f74206d617463682e0000000000000000602082015250565b611541816111ab565b811461154c57600080fd5b50565b611558816111c9565b811461156357600080fd5b50565b61156f816111f3565b811461157a57600080fd5b5056fea2646970667358221220e6fd1120af6362f3bbcb1ccea6eac02e9a75dd3983ac7439cfa16ec22d6f4aae64736f6c63430008050033",
  "linkReferences": {},
  "deployedLinkReferences": {}
}